:100000000202B102462500000000000000000000CE
:100010000000000000000000000000023246010263
:100020000408102040800208002222023C4E1401E5
:100030000A010002FB04F605EC06E707E208022BC2
:100040007922FF0245A27D23BE24000048037D32B1
:10005000226D339D322202005EFFFF0247FEC28EF8
:1000600002335B02461E0000000101010101000194
:100070000102020202010001020304040302000261
:100080000305050504020002040606060503000335
:10009000050708070603000306080909070400040A
:1000A000070A0B0A08040004080B0C0B09050005DD
:1000B000090C0D0D0A0500050A0E0F0E0B060006B1
:1000C0000B0E0F0E0B0600060B0E0F0E0B06000696
:1000D0000B0E0F0E0B0600060B0E0F0E0B06000686
:1000E0000B0E0F0E0B0600060B0E0F0E0B06000676
:1000F0000B0E0F0E0B0600060B0E0F0E0B06000666
:100100000B0E0F0E0B0600060B0E0F0E0B06000655
:100110000B0E0F0E0B0600060B0E0F0E0B06000645
:100120000B0E0F0E0B0600060B0E0F0E0B06000635
:100130000B0E0F0E0B0600060B0E0F0E0B06000625
:100140000B0E0F0E0B0600060B0E0F0E0B06000615
:100150000B0E0F0E0B0600060B0E0F0E0B06000605
:100160000B0E0F0E0B06C2D57CB430E708B2D56E6D
:1001700024FFFF0B247CB630E712B2D56E34FFFFAC
:100180000B348D326E24FFFF0B2480028D3230D56C
:10019000066E34FFFF0B34227D02AD31AD102D21F0
:1001A000226D0074104D00780B4D2278278D317D23
:1001B000126D22227D437D326D222F112D4450027B
:1001C000A50FBF1040049F100B901478ED7F016DB8
:1001D000227D34227D417D138D247D022F00400439
:1001E000BD0440049D040B141478F17D237D317D02
:1001F000106D0022C2D57CB030E708B2D59F229F97
:10020000207F027CB430E713B2D59F229F217F125A
:100210001201A39F229F207F0280031201A330D5E9
:10022000069F229F217F12226CAA4D11681A1E542C
:10023000680E0B38201B18200B350B151B5478F259
:1002400050067E39407A1940220F0F0F0F0F0F0F03
:100250000F0F0F0F00090807060504030201000035
:100260000102030405060708090A0B0C0D0E0F0412
:10027000040404040404040404040404040404043E
:10028000040404045050505050505050505050509E
:10029000141414141414141414141414141414141E
:1002A00014141414140E0E0E0E0E0E0E0E0E0E0E50
:1002B0000E7584017E44041FE47A49B01B4478F92A
:1002C0007EF80CB0751D00751600D200750A007519
:1002D0000F00751000751400C20275170075180024
:1002E000751900751A00751E00C2037E0400FF7E9A
:1002F0001403770B0A405D44681A692000020B0E54
:100300000B44800A7E0BB07A29B00B240B0C1B44E3
:1003100078F280DF0243B9191D1F201C1B0E00005C
:1003200000000000000202020202020202020202B7
:100330000202027D03800A7E29B07A09B00B240BE9
:10034000047D511B144D5578EE227D1380071B242C
:100350007A19B00B144D2278F5221010101C1914C4
:10036000100E0C0B0A090807060050005000500040
:100370005000500050005000010CAA0000010CABCE
:100380000000010CAC0000010CAD0000020AD60018
:100390000000010BDD0000010BDF0000010BE2009B
:1003A00000020BE3000000010BE80000020CAE00AD
:1003B000000000CA3B7EB30AD0F5267EB30AD1F511
:1003C000277401124D7C6CEE6CFF0A3F097303FC2D
:1003D000BC7E40027CE70BF0BEF01078EDBEE03F43
:1003E000500C0A2E7E34003F9D327CE780026CEE7A
:1003F0007CDEA1031227C31233AC1234EB60FB1274
:1004000016521246B06CFF6CCC4CFF780A6D3374F8
:1004100002ACBC59350C3E0A3C2E34024912053C54
:10042000BCBF50157E1703C41E141E141E141E14C8
:100430001E147E5002AC5C801A7E5002AC5C7E7052
:1004400018AC7F2D32491308800E140E140E140EB2
:10045000140E142E240C3E124D860BC0BEC00A781A
:10046000A80BF0BEF010789F7528006CFF7402ACEA
:10047000BF7D352E340C3E0B38201E241E241E2436
:100480001E241B38200B38403E443E443E443E442C
:100490003E441B384049250C3E7E3703C49E37043A
:1004A00022BD2350181205360A3B09B302D2BCBE46
:1004B00050072E3402D20480230528802A7E370478
:1004C000222E3703C4BD23281C1205360A3B09B36C
:1004D00002D2BEB000280A2E3402D2147A39B0807B
:1004E000060528800205280BF0BEF00A6802816D1F
:1004F00053DBF0124821A9C5CB12167AE528BEB00D
:100500000A680A7CAD1BD04CAA680261F46CFF1229
:1005100005360A3B097302D20A2F197204110BF037
:10052000BEF00C40EAE5267AB30AD0E5277AB30A92
:10053000D17401DA3B220A3F2E3402557A71827A55
:100540006183E49322CA3B53DCE043DC066D660022
:100550000B64BE64001278F753C9FE6D331206486F
:100560007CFB7EB30B2A70037EF0FFBEF0FF683881
:100570007E3403F0120648F5267E3403F112064855
:10058000F5276526BEB0FF68037EF0FF7527006D76
:100590006612064462270B64BE64026978F3E5279D
:1005A000BEB12668037EF0FFBEF0FF68031207614C
:1005B00074107AB303B6740A7AB303B774027AB3C9
:1005C00003B8E47AB303B9740A7AB303BA7E342168
:1005D000347A3703C4124D98124D186CEE0A3E2E31
:1005E00034025F12053C0A3E19B303C62E34029052
:1005F00012053C0A3E19B303DB2E34026F12053C90
:100600000A3E19B303FC0BE0BEE01578D06CEE0A8D
:100610003E2E34028412053C0A3E19B303F0BEF0AC
:10062000FF780F0A3E2E3402A512053C0A3E19B38C
:1006300004110BE0BEE00C78D6BEF0FF7803124D3B
:1006400058DA3B227D360B362E347C0002064FC230
:10065000AFD2C90A56F5F17CB71246A775F501A9C4
:1006600037F5FC020666E5F643FA80C2C9D2AF222E
:100670001225D06D337A3701AB1227F07AB301E837
:100680007AB301E97AB301EA7AB301EB7AB301EC08
:1006900074017AB301E6E41225F3124DA16CAABEEF
:1006A000A00750340A3A2E34031712053C0A4A199F
:1006B000B401AD0A3A2E34031E12053C19B401D51B
:1006C0000A3A2E34032512053C19B401BD0A3A2E0C
:1006D00034032C12053C801374FF0A4A19B401AD8F
:1006E000E419B401D5740219B401BD0A4A19B40160
:1006F000DD0A3A19A301B5120759594301C50A3A4F
:1007000009B301ADBEB3042178280A3A09B301D573
:10071000BEB30424781C0A3A09B301DDBEB3042633
:1007200078100A3A09B301BDBEB3042578047AA350
:1007300001E80BA0BEA0086802C19F6CAA1207596D
:100740005943029C7E447FFF7E7002AC7A5943027B
:10075000840BA0BEA00C40E5226D447E7002AC7AF2
:1007600022CA3B7E7403B66D661206447A79B00BDA
:10077000740B64BE64026940F0DA3B226D337A3751
:1007800003B022FFFFFFFFFFFFFFFFFFFFFFFFFFA1
:10079000FFFFFFFFFFFFFFFFFFFFFFFFFFFFFFFF69
:1007A000FFFFFFFFFFFFFFFFFFFFFFFFFFFFFFFF59
:1007B000FFFFFFFFFFFFFFFFFFFFFFFFFFFFFFFF49
:1007C000FFFFFFFFFFFFFFFFFFFFFFFFFFFFFFFF39
:1007D000FFFFFFFFFFFFFFFFFFFFFFFFFFFFFFFF29
:1007E000FFFFFFFFFFFFFFFFFFFFFFFFFFFFFFFF19
:1007F000FFFFFFFFFFFFFFFFFFFFFFFFFFFFFFFF09
:1008000053DCE043DC067EA012001BA078FB53C93A
:10081000FEBEB00F4013BEB02E380E53C9FE53DCDF
:10082000E00A3B9E34000F801343C90153DCE0BE55
:10083000B00E380D0A2B7E34001F9D327CB742DC8F
:1008400022B42F0443DC0322B4300443DC022243ED
:10085000DC0A22CA3B7EB303A7F52C7ED303A87E15
:10086000340C3E120E7D7E34002E7E240005E412F0
:10087000034AE52C70436CEE7E34FFFF7407ACBE78
:1008800059350C117407ACBE120E50ACBE124D643B
:100890000BE0BEE00578E1BED00038026149120EDF
:1008A000797EB303AB44047AB303AB54F77AB30352
:1008B000AB54DF7AB303AB61496CEE80267E500700
:1008C000AC5E2E24005C0B2830121FBE1B28307E2D
:1008D0005007AC5E2E24005E0B2830121FBE1B2872
:1008E000300BE0E52CBCBE38D44CDD780A7EB30377
:1008F000AB44107AB303AB6C116CEE6CFF80111239
:100900004D2E780ABE00FF6805124CB980080BF026
:10091000E52CBCBF38E90BE0BEE00578DE6CEE7E6E
:10092000F12C8011124D2E780ABE00FF6805124C82
:10093000B980070BF0BEF00540EA0BE0BEE0057899
:10094000DE6CFF6CEE80177407ACBE09A50C427E0E
:100950007007AC7F09030060BC0A68060BE0BC1E90
:1009600038E5BC1E78197E7007AC7F2E34005C7EA3
:100970003007AC312E140C3E74071202280B100BFA
:10098000F0BEF00578BD7E240C3E7E340382120B4F
:10099000504CDD780D7E24005C7E340382120B50B7
:1009A00041BF7EB303AB30E30241BF6CFF41B76C84
:1009B000EE7E7007AC7F094300607407ACBE09553A
:1009C0000386BC5468070BE0BEE00540E47E500798
:1009D000AC5E091203867A112D2E102E7401A5F734
:1009E0004933005E49220384120B577407ACBE4999
:1009F000250382120B7E7A3528120B757EA12D7489
:100A000007A449250C13120B577EA12D7407A44986
:100A1000250C11120B7E7E1702F0BE152638097EBA
:100A20000401007A052A801E7E35286D227C567CC2
:100A3000676C771201A17A352ABE34001050077E08
:100A40003400107A352A7E352ABE34010028077E0C
:100A50003401007A352A7EA12D7402A449450C3454
:100A6000BE4526280949450C077A452A80077E4558
:100A70002A59450C077E352659350C34120B5C7EFD
:100A80005007AC5E2E2403827E152A120E1C120B18
:100A9000757E5007AC5E2E2403847E152A120E1C30
:100AA000120E637E712D7407AC7B2E340C117E14F4
:100AB00000071203330BF0E52CBCBF280221AF7EE8
:100AC000240382120B4C6CFF120E63120E6D1B2856
:100AD000307E5007AC5F2E24005E120E6D1B283056
:100AE0007C1F2E102EA5E770187E34FFFF7407AC14
:100AF000BF59350C117407ACBF120E50ACBF124D6C
:100B0000640BF0BEF00578C07EB303AB44017AB34A
:100B100003ABE52CBEB00028307E24005C7E34039D
:100B20005F120B506CFF120B5C1217FD7407ACBF09
:100B30005935035F120B7512186A7407ACBF59352B
:100B400003610BF0BEF00578DDDA3B227E34005CF9
:100B50007E140023020333120B657D637407ACBF60
:100B60004935005C227D13BD2150057D319D322227
:100B70007D329D31227407ACBF4935005E22120BD5
:100B8000652D367A3526227CA67C570A3B0A25122B
:100B90000B650A2ABD323803740122E422CA3B7E67
:100BA000B3007FBEB0025002A1F1F5317E6408802F
:100BB0007E73003E7A730C3E7E73003F7A730C3F67
:100BC000752E017EF001A1B87402ACBF0965003E2C
:100BD0007A61340955003F7A51351E607E700CAC45
:100BE000671E500A252D327A35326CEEA192120E14
:100BF00005120DFA6843E5351A3E120DF4683A1AEB
:100C00003E3E3409430C3E1E407E500CAC45093339
:100C10000C3F1E300A132D213E242D260B28107E5A
:100C20002532120E14BD124802A18BE53419B30C03
:100C30003EE53519B30C3FA18B120E057E600612FE
:100C40000DFD7802A190E5351A3E3E3409730C3F44
:100C50007E6006120DFD7802A1901A2E3E240972C4
:100C60000C3E1E700A477E7002AC7F0933003E1EA8
:100C7000300A532D54F52F09520C3F1E500A4509D6
:100C800073003F1E700A572D54F5306D3380281ABB
:100C90003EBE3526681CE52F7E3526120E09120D44
:100CA000FA680FE5307E3526120DF46805752FFFC2
:100CB00080117E35260B347A3526E52E0A3BBE356B
:100CC0002618CCE52FBEB0FF7802A1901A1E3E1464
:100CD00009010C3E1E007E100CAC0109710C3F1E78
:100CE000700A372D033E042D060B08207E35323E58
:100CF000342D360B3830BD2308057A252880037A39
:100D000035287E35287D230E240E240E342D327A8C
:100D10003528BE34005058077E3400507A3528E517
:100D20002F1A1B0B140E147E44000CAD147E713070
:100D30001E700A37120E107E112F0E101A017D50F0
:100D4000AD542D35120E597A352A0E347A352AE5EE
:100D5000300A3B0B340E34120E107E14000CAD1012
:100D60002D31120E597A352C0E347A352C2E352A27
:100D70000E34BE35284819E52F1A3E3E3419B30CFF
:100D80003EE5301A3E3E3419B30C3F7EE0FF800A48
:100D90000BE0E52EBCBE080261EEE52EBCBE781667
:100DA0007EA1347E712E7402AC7B19A30C3EE53516
:100DB00019B30C3F052E0BF0E531BCBF280261C80A
:100DC000E52EBEB00028246CFF801A7402ACBF0967
:100DD000750C3E1975003E7402ACBF09750C3F19C5
:100DE00075003F0BF0E52EBCBF38E0E52E7AB3006E
:100DF0007FDA3B223E3409730C3F7E6002120B8780
:100E00000A3B4D3322E5341A3E3E3409730C3E2230
:100E10007D212D233E242D260B282022CA3B7A1526
:100E2000337D727D630B7820120B657D237E353315
:100E3000AD237C767C650A247D230B7830BD36504B
:100E4000072D231B782080059D321B7830DA3B224A
:100E500059350C136D447402223E342D360B383054
:100E60002D32227E5007AC5F2E24005C220B2830EE
:100E70001E341E341E341E34227E3403827E24002F
:100E80002374FF02034A7E34003E7E24016BE41289
:100E9000034A7E34035B7E240055E412034A7E3409
:100EA000005C120E7D7E34035F120E7D120E79748B
:100EB000017AB303AD751200751300751100750B3F
:100EC0000012077C7E240DAC7A27003CE47AB30242
:100ED000C57AB303B27A3703B4C2017A3508020E79
:100EE000E17AB306647AB303B322CA3B6D337A3531
:100EF00026752A00752B007E23007F7A21287E34F8
:100F000008807A370C3E7E3002AC237E24003E7E81
:100F1000340C40120333E528BEB00538030210A09C
:100F20007529006CFFE1D57E3403FF7A352C752BD3
:100F3000FF6CEE80527E7002AC7E09B30C40BEB0F6
:100F4000FF684209730C410A277402ACBF09750B94
:100F5000EA0A3712417A7402ACBE09750C400A27BE
:100F60007402ACBF09750BE90A379D321200462D99
:100F7000367A352E7E352CBE352E28097E352E7AD2
:100F8000352C7AE12B0BE0E528BCBE38A8E52BBE5A
:100F9000B0FF683F7E712B7402AC7B09330C407C40
:100FA000431E407E500CAC4509A30C417C2A1E20F8
:100FB0000A022D20124CAFBE2400504816E5291A13
:100FC0002B3E2419320C5E19A20C5F74FF19B30C6E
:100FD0004005290BF0E51DBCBF2802E1277EF12961
:100FE0000210866D337A35267EA0FF6CEE806C7E13
:100FF0009002AC9E09440C40BE40FF685C1E407EDF
:10100000500CAC4509B40C411EB00A3B2D233E24C4
:101010002E270C3E0B2830BE34000058056D331BC4
:1010200028307E5002AC5E09620C407C761E707ED9
:10103000300CAC3709720C417CB71EB00A0B2D1076
:101040003E142E170C3E0B1840BE4526480B7A6105
:101050002A7A712B7A45267CAE0BE0E528BCBE3897
:101060008EBEA0FF681E7E712A7E9002AC9F19740E
:101070000C5EE52B19B40C5F7E70FF7E5002AC5AFB
:1010800019720C400BF0BEF0055003020FE37E24F2
:101090000C5E7E340C407E14001E1203337528054E
:1010A0007E340BE91210DEE528BEB000281C1210B9
:1010B000D67E240C407E34003E1203331210D67EBE
:1010C000240C407E340BE912033385281DE5287A71
:1010D000B3007FDA3B227E31287402AC3B227E24AF
:1010E000000A74FF02034ACA3B6CDD7EA0FF7E70DB
:1010F00007AC7D19A306237C1D2E1026E4A5F70B53
:10110000D0BED00578E57EC306604CCC78187EB39F
:1011100006617002418E7E34064C1210DE7E34066B
:10112000561210DE418E7EB30661701FBEC001787C
:101130001A7E37061F7A37064C7E3706217A370625
:1011400056752601E47AB30623418E6CDD7E34FFAA
:10115000FF7E5002AC5D59320C527CBD7CAD20E06C
:101160000B1EA07402A44935064C80091EA074020F
:10117000A44935065659320C3E0BD0BED00A78CD64
:101180006CDD80257CBD7CAD20E00B1EA07407A427
:101190004935061F80091EA07407A449350621742D
:1011A00002ACBD59350C520BD07E7306600A273E47
:1011B000240A3DBD3240CD7E340C3E7CB7F5B90AE1
:1011C00056F5BA7E340C527CB7F5BB0A56F5BC75A1
:1011D000C30575C22B800375C20B00000000E5C279
:1011E00030E7F475C20075C50EE5C60A1BE5C67C7E
:1011F0000B6C114D106CDD7403ACBD7D3160051EB0
:10120000341478FB5E3400070A571B547CAB7EB362
:101210000660BCBA284C7E1002AC1D12130F781960
:101220006CFF7E1002AC1F12130F78047CEF800B52
:101230000BF0BEF00540EB80027CED7E5007AC5A0F
:1012400019E206237C1E2E10267401A5F74902061A
:101250001F7E7002AC7E5903064C490206215903D9
:1012600006560BD0BED005788E6CDD121307BEB0CB
:101270000168147E44FFFF7402ACBD5945064C7EE4
:1012800034FFFF593506560BD0BED00578DD7EF30E
:1012900006606CDD121307B4012D0A3D09B3064741
:1012A000B4010874030A3D19B306470A3D09A306B1
:1012B00047BEA0037809E40A4D19B4064280324CB7
:1012C000AA782E740280240A3D09B30647BEB002F4
:1012D0006802701574010A3D19B306427CAF0BF029
:1012E0007407A419D50623800874030A3D19B306B0
:1012F000420A3D097306420A2D197206470BD0BEF9
:10130000D0054090DA3B227C1D2E1026A5E722490D
:1013100000064CBE04FFFF227E73007F7A730660D6
:101320007E24005C7E34061F120B501210E7123F21
:10133000F97E24061F120B4C7E7306607A730661D9
:101340007E7306607A73007F22CA3B6CEE124D41B9
:1013500075170012424112271B120E867E34061F9B
:101360001245B2E47AB30CB012260E1237BF123413
:10137000E478FB12211D121681124D981203B3124C
:101380000670122F051227BC12165212177F124D2B
:10139000047AB30B316D337A350C7ED30B157AD1C9
:1013A0000E7EB30B31B401028002C14253DB7F12C7
:1013B000077C7E3400647A37003C12447775120053
:1013C0007511007EB30B2F70087EB302BEF513803B
:1013D000067EB302C0F5137EB30B2ABEB0FF6809C8
:1013E00012054512165B1243B21245EEE50E70026D
:1013F00080377EB301ECF5217EB302B5F5237EB3D1
:101400000282F525121FEC7EB301ECF5227EB302B9
:10141000B5F5247EF30282E5217AB301ECE5237A67
:10142000B302B5E5257AB3028212164F1246B01206
:10143000420F1241827E730AA47A730B337EB30289
:10144000C4B40104E4121669E50EB401217E6301FF
:10145000E8BE600750127E7002AC672E3403697ECE
:101460002400FF0B1A30800A7E34005080047E3442
:1014700000507A3706651E341E347A730667121FD1
:10148000DB124A41122BA47E370AA27A730B0D7E1F
:10149000B30A9B7AB30B0EB4061712334A500312E9
:1014A0002822123C927EB3008130E005E47AB30A30
:1014B0009B12166278127EB30A9BB4040BE50E7081
:1014C000077E34000A7A350C7E350CBE34000028C5
:1014D0000B1B347A350C74047AB30A9B7E34003EBD
:1014E0007A37035B121D457AB303ACE50EB40110E5
:1014F000E5227AB301ECE5247AB302B57AF30282ED
:101500007401120B9D120EEA12190B1218CD7EB344
:101510000A9BB4060E7E73007FBE70012805E47A34
:10152000B30A9B1216527E1406651248FC1216620C
:10153000780C7E730080BE73007F50058000122FF0
:10154000187EA3007F4CAA7805E47AB303B37AA38C
:101550000080121671E50EB401347EB303A7122188
:10156000E97EB30B19B40126E47AB30B197E730B31
:10157000147A7304217E730B177A730424124D8F2F
:101580007E730B167A73042612067012165B7EB3F6
:101590000B15700BBED00178067EE00112165B7E43
:1015A000A30B15BCAD68027CDABEA10E68097EB340
:1015B00003AF70037AA10E1231E07E7303A77A7332
:1015C000007F7E3402EF7A3706621213187E3406EB
:1015D0001F7A37035B1216711208537E7306677AFF
:1015E000730B0A7E34035B7E2402EF123CDF12335E
:1015F000B97EB303AFB40102800261A17EB3008063
:10160000600261A1BEE001782F6CEE6CCC0A2C2E3A
:101610002403DB124D710BC0BEC01578F0124D18BB
:1016200012067074197AB30B14E47AB30B177402B0
:101630007AB30B187AB30B16121765E47AB303AFBB
:1016400061A11248A3E4121669120029DA3B2212A2
:1016500016817E340AA57E2406882274017AB3039B
:10166000AF227E370AA24D33227003D28622C28671
:10167000227E73007F7A7303A7227EB304211200B7
:101680002653DBFDD2EB43DB0143DB2022CAF812F9
:10169000175C124D4153DBF075170112321E1232E6
:1016A0003A12271B12260E12212312175553DB7FE5
:1016B000121681740A7AB30C9E74107AB30C9D12C0
:1016C0004D0F1232327AB30AD11227C37EB30C9A6D
:1016D00070271233AC74017AB30C9A7518017E34FA
:1016E0007C0012468574041234F56D33E412360A18
:1016F00012076174037AB30C9A7518007EF30C9B81
:10170000BEF00378467EB30BE530E7BD12271B80A1
:10171000034387011234EB60F853DBF012260E12FC
:1017200021231217557EB30CA37003E480027401C9
:10173000124D7C1216521246B012168112175C7EA0
:10174000B30BE5547F7AB30BE5C1C97AF30B3112C1
:1017500048A3DAF82274237AB30AD3227E340880AD
:101760007A370C7E221234EB60FB12205F12260BBC
:1017700012211D1216811227BC12165202177FCA9F
:101780003B7D627D730977002C7A730C4209B700A8
:101790002BF52BE419B7002C19B7002B7D362E340E
:1017A00001F87A370C407A670C3E7528011234EB49
:1017B00060FB7D377D261246B01216816D337A3577
:1017C000297E25293E247D322E370C400B38100E01
:1017D000140E142E270C3E124D86121F75BE3400B7
:1017E000FC78DE0528E528BEB00428C17E730C42D3
:1017F0001977002CE52B19B7002BDA3B22BE3400F9
:101800003F38117D439E44002012184F283E7E2809
:1018100000948038BE34024040157D439E4402400F
:1018200012184F40047E2800932E28050B801D6D52
:10183000229E1800407E14023C1218600A482E288E
:101840000094BE28050B28047E28050B7D35227EDA
:101850005404A1AD546D447CBA7CA9BE28009422E6
:101860001201987F217CBA7CA922BE34003F381136
:101870007D439E4400201218BC283E7E28009E8096
:1018800038BE3403C040157D439E4403C01218BCCB
:1018900040047E28009D2E280961801D6D229E181F
:1018A00000407E1402811218600A482E28009EBE55
:1018B00028096128047E2809617D35227E5404F2BE
:1018C000AD546D447CBA7CA9BE28009E226CAA80CF
:1018D000167E3007AC3A4931005C4921005E2E1477
:1018E000005C1218F00BA07EB3007FBCBA38E22275
:1018F000BE34000050026D33BE24000050026D2241
:101900001B18307D310B351B382022CA3B7EA300CB
:101910007F7AA1277E6706657EB30AA5F52C7EB384
:101920000AA6F52DBEA000380221FC6CFF6CEE214A
:10193000F07E7002AC7E09B3003E1EB0F52809B3FC
:10194000003F1EB0F52974021219FF7E5129AC5BCD
:101950007E7128121D3E49330880BD36500221E9B0
:10196000E528BEB0012823E52C0A2B1B25E5280A13
:101970003BBD325815E529BEB001280EE52D0A2BD6
:101980001B25E5290A3BBD32480574011219FF7574
:101990002600803EBEE12668377EA1267402A40997
:1019A00075003E1E707A712A09B5003F1EB0F52BF6
:1019B000E5287E6003120B87B40115E5297E712BA3
:1019C0007E6003120B87B4010774011219FF8009AE
:1019D0000526E527BEB12638BB7AE301A77AF301D5
:1019E000A8121FDB121A060BF0BEF005500A0BE01E
:1019F000E527BCBE280221317AF3007FDA3B220AB8
:101A00003E19B3019822CA3B7DD07DC17D936CAA5B
:101A10006C776D887A870C3E7A870C407EA4000133
:101A2000096D016909BD016AF52E0A462D4D09347B
:101A3000015A494C00137D092E0401F87DB92EB4DA
:101A400003F06C227EF007ACFB7D872D8D192800FA
:101A500023E47D872D8D19B800247EF002ACF67D3D
:101A6000872D8D7E89201E207ED00CACD2092800C7
:101A7000011E200A822D867AB30C4E3E842D800BE7
:101A800088600BC880BD68480674017AB30C4E7D2F
:101A9000A92EA401F87D6A0A6C7CBDF5BA7D6A7C2A
:101AA000BDF5B97D972D9D121D1DBD894015121DD7
:101AB00013097900011E700A970A839D987D797C2D
:101AC0007F80026C777A71BB121D137E9920121DE4
:101AD00021BD89400A0A937D589D597CAB80026CD8
:101AE000AA1A9A3E943E943E943E947D797C2F7C33
:101AF000B242BB7CBA0EB00EB00EB00EB0F5BC094F
:101B00002C00220A923E943E945E9400F07D797CF3
:101B10002F7CB242BC75C300121D13121D1D2D98DF
:101B2000092200010A82BD98500280040A921B9487
:101B30007D797CBFF5300922002F7CB2C43354E09C
:101B40007C2BE5309CB7044CB2F5C3121D137E9973
:101B500020121D212D987E29200A82BD9850047DD7
:101B60007980060AA21BA47D7A7CBFF52F1A9AE51C
:101B70002F1AAB9DA90BA47D7A7CBFF5C47EA40C63
:101B80004F7D7A0A7E7CBFF5C17D7A7CBFF5BD753D
:101B9000C207800343C20100000000E5C230E7F441
:101BA00075C2007E7F0C577A7F0C4A7E7F0C5B7A71
:101BB0007F0C427E7F0C537A7F0C467E7F0C4F74E5
:101BC00002ACB62D5D7E59A01EA09CA3816B121D98
:101BD00028097A00011E709C738079BEA0004872AB
:101BE0007E2920BC2A086BBE7000486609220001CD
:101BF000BC27085E1A8A7E94000CAD981AA72DA9FE
:101C00007D9A3E942D900B9890BD9448167EF12EAF
:101C10007407ACFB7D972D9D2E9400247E99B00413
:101C20007A99B07EB30C4EB401287D9A5E94000779
:101C30002E94001E7D797AF1827AE183E49364FF29
:101C40007D9A1E941E941E942D9B7E99205C2B7A67
:101C500099200B70121D1309B900011EB02CB31A84
:101C60008B1A97BD98180261DB0BA0121D287EA964
:101C7000B01EB02CB31A9B1AAABDA9180261CE746B
:101C8000067E1F0C422F111478FB7A1F0C427E0F28
:101C90000C4A7E1F0C421201A37DB32EB400207AA1
:101CA000B70C3E74067E1F0C462F111478FB7A1F6A
:101CB0000C467F071201A37D232E2400207A270CD7
:101CC000407E712E7407AC7B7DA32DAD59BA001EEA
:101CD0007D132D1D5921002009BC0012600D1EF43A
:101CE0001EE450044EF480001478F3BE78007F2880
:101CF000047E78007F7D2F7DC32DCD195C00232DC0
:101D00003D09530024BE500F2806740F19B3002458
:101D1000DA3B227EF002ACF67D972D9D2209290048
:101D2000011E200A820A93227EF002ACF67DA72DC6
:101D3000AD22094700017E5002AC457E712B74181C
:101D4000AC7B2D3222CA3B6D337A35287EB3007FBF
:101D50007002C10D7EB303A86002C10D7EB3003EC8
:101D60001EB0F5267E73003F1E707A71276D667572
:101D70002A00752B000A377D7380317D173E1412BF
:101D80001EBC2D2149120880BE14003C0824121EDE
:101D9000C42808491208682D61052BE526BEB00F3E
:101DA0005008492208982D62052B1B74BE74000050
:101DB00058C97D7380307D273E247E7126121D3EDA
:101DC00049230880BE24003C0828121EC428084964
:101DD0002308682D62052BE526BEB00F5008493355
:101DE00008982D63052B7D370B347D73BE34000AB4
:101DF00048C4E52ABEB003500280127D3612004668
:101E0000E52B0A2B120166BE34000F08067514007C
:101E1000E4C1B26D33E526BEB000280B121EB52D0D
:101E200021492208682D32E526BEB00F500B121E44
:101E3000B52D21492208982D327EA00880287E5099
:101E400002AC5A7D122E14002E7A31827A2183E45C
:101E5000931A1BBD13080F2E24002F121ED01A2B0D
:101E60002E25287A25287C5A1BA0A5BD00D07E519E
:101E7000277402AC5B7E7126121D3E493308801226
:101E80000046BE3403E8080A7E35282E3400287A3E
:101E900035287E3528BE3400FA28077E3400FA7AC9
:101EA0003528E5140A3BBE352850057E5528F51423
:101EB000E514DA3B227E31277402AC3B7E51267456
:101EC00018AC5B22052AE526BEB000222E2402555E
:101ED0007A51827A4183E49322CA3B7D727D636D9D
:101EE000337A3529E47E35292D367E3970121FC7A5
:101EF0007A352B7E35294D33780A7E352B4E3420AA
:101F0000007A352B7E352B121F70BE34000C78D42E
:101F10007E34000C7A352974C06C77121F72BE347F
:101F2000002478F36D337A35297E35293E342D37F8
:101F30007E39B009730001121FA57A352B121F706C
:101F4000BE34000678E3759D00759E006D337A35CA
:101F5000297E35297D232E240066121ED0F59F0B85
:101F6000347A3529BE34010040E7759D01DA3B2201
:101F70000A56121F7E7E35290B347A352922121F0C
:101F8000B3F5D6E5DB30E3FBE5D6F51B53DBF37A9F
:101F900071D6E5DB30E3FBE5D6F51C53DBF343D725
:101FA000047E351B22121FBA3E342E34C0000A2B89
:101FB0002D322253D70353DBF3220A373E343E340B
:101FC0003E343E343E34227CA70A3B121FBC3E34D2
:101FD0003E342E34C0000A2A2D32227E3406887EFA
:101FE000240AA57E1406657E04003E22CA796CFF91
:101FF0000A2F2E240303124D710BF0BEF01078F05F
:102000007E3401A97E240AA57E1402FB122D5F7E78
:102010007301EC0A3709E301B50A3E09B301AD12B9
:10202000002653DBF0740E7E70021220680A3E090F
:10203000B301DDB40104743F8002747F7AB302FB04
:102040001221266CFF0A2F2E2403037E29702E7383
:1020500004247A29700BF0BEF01040E9DA7922539B
:10206000DBF0740E7E730425121FB34440F5D6E5F1
:10207000DB30E3FB53DBF37A71D6E5DB30E3FB5374
:10208000DBF343D70422CA797D73740609770019FC
:10209000122068740A0977001A12206874080977F8
:1020A0000020122068742A0977001B122068740C23
:1020B0000977001C122068742A0977001D12206815
:1020C000742E0977001E122068740209770021120D
:1020D00020687404097700221220687424097700AC
:1020E00023122068741E09770024122068741809CE
:1020F0007700251220687420097700261220687462
:102100002209770027122068740E0977001F122019
:1021100068741C09770028122068DA792274237AFF
:10212000B30AD31225517E3402FBCA3B7D736CDDAA
:102130004937005D120E701E347CC7E47E79701240
:1021400021D97402097700021221D974030977009A
:10215000031221D97404097700041221D9740509E6
:102160007700051221D974060977005F1221D9740E
:1021700008097700061221D974090977000712218E
:10218000D9740A7C7C1221D974016C771221D96C24
:10219000CC803B1221E224100A3C2D370973004702
:1021A0001221DF24110A3C2D37097300081221DFA8
:1021B00024120A3C2D370973001D1221DF24130A53
:1021C0003C2D37097300321221D90BD00BC009778F
:1021D0000005BC7C38BDDA3B22F5D97A71DA2212CF
:1021E00021D97CBD3EB03EB022CA3B7CDB6CCC1218
:1021F00025D9783E7E2701ABBE2400017802811AE2
:102200007E2400017A2701AB7EB301E860107402DE
:102210007AB301E67E5301E87A5301B68006740171
:102220007AB301E6E47AB301B57AB301EC1225EB97
:10223000811ABE34000278567E2701ABBE2400020C
:1022400068367E2400027A2701AB74077AB301E670
:10225000E47AB301EC1227F07AB301ED1225EB6CAE
:10226000FF6D227402ACBF592501C50A2F19F20176
:10227000B50BF0BEF00778E97E5301E7BE5301EFDE
:102280002802811A7E2400037A2701A9811ABE340C
:102290000003680281027E3701ABBE34000378027E
:1022A000811A7E347FFF7EE0FF6D227A25266CFF47
:1022B00080170A1F09A101B57402A4492501C5BEF2
:1022C000252628037A25260BF07EA301E6BCAF382D
:1022D000E16CFF80447E4400017CBF60053E4414F5
:1022E00078FB7EB301EE0A2B5D24782B0A4F09544C
:1022F00001B57E3002AC35491101C5BD1350187CC3
:10230000E57E7002AC7E493301C57E4301E77E5015
:1023100014AC45BD2338060BF0BCAF38B8BEE0FFA7
:10232000780261F07EA301E8BCAE780261F07E35F0
:1023300026BE340064380261F07402A4492501C548
:102340007402ACBE493501C59D321200467EA30120
:10235000E87402A4492501C51E24BD32380261F08B
:102360004CDD680261ED7E3400047A3701A90A3E33
:10237000095301AD7A530421095301DD7A53042630
:102380007A530B167E5304217A530B14097301BD43
:102390007A730B187AE301E80A3E09E301D56CFF72
:1023A0000A3F2E3403DB7E39509E5304247A395081
:1023B0007E39B02CBE7A39B00BF0BEF01578E17AD8
:1023C000E304247AE30B17124D8F1234EB60FB12F7
:1023D000205F1227BC12271B12212312164F12173F
:1023E0007F7E3400037A3701AB7401A14E7EC001B9
:1023F0004CCC78261225E268031225D07E340003E7
:1024000080141225E278137E3701ABBE34000468D5
:10241000091225D06D337A3701AB1245EE12205FD9
:1024200012271B122123121681E47AB30AD17401F8
:102430007AB30AD01216521246B07E3401A97E2415
:1024400006887E140AA5124B6674017AB30AD1E499
:102450007AB30AD01225D978537E5301EC0A2509A4
:102460005201B5BE5301E86802A14D7EB30CABBE6C
:10247000B0C85016047AB30CAB7E2701F0BE24001E
:102480007828107EB30CAA048005E47AB30CAB7AEA
:10249000B30CAA7E530CAABE50035002A14D7E2459
:1024A00000027A2701A9E4124DA1A14DBE34000219
:1024B000680EBE3400066808BE3400056802A14DEF
:1024C0007EB301EFBEB301ED2802A14DBED00028BE
:1024D0007C7EA301E7BEA301EF2813BEB301ED503C
:1024E0000D047AB301EF7E7301EF7A7301ED7EA3E1
:1024F00001EC0A4A09B401B56025BEB301E8681FC2
:102500007E3701F0BE34012C28157E3400017CBAE0
:1025100060053E341478FB4E7301EE7A7301EE7E53
:102520007301EC0A2709A201B57402A4494501C54B
:102530002E4701F0BE447FFF500B7D352E3401C580
:102540001B384080087E347FFF593501C5E4DA3BF3
:10255000226CAA0A3A09B303DB0A4A19B403030935
:10256000B303FC19B403182E34000612053C19B449
:10257000032D0BA0BEA01578DA74027AB302FF7E99
:10258000B30426B40104743F8002747F7AB302FB63
:102590007E34012C7A37035874C87AB30301E47A85
:1025A000B3030274EB7AB302FD7EB304211200265A
:1025B000745D7AB302FE7E7303B67A7303007E24E1
:1025C00003C67E3403421227B374C87AB3035A2277
:1025D0007E3400017A3701A9227E3701A9BE34007A
:1025E00001227E3701A9BE340004227AB301E97AC0
:1025F000B301EA7AB302B77AB302B874017AB302CC
:10260000B9E47AB301EE7AB301EF2212271BCAD8DC
:10261000CA797E3402D21227137E3402C6122713DF
:102620006C7780200A27096203F0121ECC0A2B194E
:102630006202C60A2709620411121ECC0A2B196213
:1026400002D20B707E6303B7BC6738D87E7303B8C1
:102650007A7302DE7E7303DB7A7302DF7E7303FC20
:102660007A7302E0740A7AB302E17E7303BA7A7372
:1026700002E274107AB302E4E47AB302E66D776C96
:102680007780140A27121ECC7E24000160053E24A8
:102690001478FB4D720B707E6303B7BC6738E47D22
:1026A000375E340001780E740F7AB302E774FF7A54
:1026B000B302E8800C0A3E7A7302E77C7F7A7302E9
:1026C000E8740A7AB302E37E7304257A7302E57430
:1026D000017AB302E974F87AB302EA74817AB30238
:1026E000EB74FF7AB302EC74147AB302ED74EB7AF4
:1026F000B302EE1248217CDB74121227F87C7B5E59
:1027000070FC0B717412122068A9C5CB7CBDDA79FC
:10271000DAD8227E24000CE402034A124D047E73B0
:1027200003B67A730AA57E7303B77A730AA67E246A
:1027300003C67E340AA91227B36CAA80110A3A2E66
:1027400034025512053C0A4A19B40ABE0BA07EB3E6
:1027500003B7BCBA38E77E7303B97A730ACA7E73CB
:1027600003FC7A730ACB7E7303BA7A730ACC7E7346
:1027700003BA7A730ACD7E7303BA7A730ACEE47A07
:10278000B30AD47AB30AD5221227C3124D4153DBC0
:10279000F012260B12167A7E3400C87A3704221201
:1027A00003B31248A31227E97EB30BE5548F7AB323
:1027B0000BE5227E3303B60A130203337E34068808
:1027C0001248C56D337A3703B07E340DAC7A3700CA
:1027D0003C227C677CAB1220687CBA1227F87C7B99
:1027E000BC677803740122E42274017AB30B3122AE
:1027F00074027AB301E7E422121FB34480F5D6E5F0
:10280000DB30E3FB53DBF375D600E5DB30E3FBE5C0
:10281000D643D704227E39B0BEB0002804147A39DA
:10282000B022CA3B7EA3007F7E5301786C446C3398
:102830007EC30B157EB30282F5327EB302B77007FA
:10284000BEC00178026176BEA0003807BE500038D5
:1028500002616EBEC001780874057AB30174800706
:102860007E34017412003E7EB30174B4050280020E
:102870006176E47AB301747EB301726002219B7EBB
:10288000B301736002219BE47AB301757AA30172EC
:102890007A5301736CDD218BBCAD7EF0082819AC36
:1028A000F42E7400827E7002AC7D09B3003E1EB02F
:1028B000F52A09B3003F801AACF32E7400FA0A0A15
:1028C0000A3D9D303E3409B301791EB0F52A09B3A3
:1028D000017A1EB0F529E52A19B70002E52919B7D2
:1028E0000001E419B70007BEC00178676C2280348C
:1028F000E5320A3B0A022D0309B700020A3BBD0379
:102900007820740119B70007090700017E1002AC96
:10291000017E7018AC722D30493301F25937000531
:10292000800A0B207EB302B5BCB238C47EB302B5B8
:10293000BCB23813BCAD28067E34017280047E34EC
:102940000173122815801CBCAD28040B4080140BA9
:10295000308010BCAD28040B4080020B307401198C
:10296000B700074CCC78167E11297402AC1B7E711F
:102970002A7418AC7B2D30493308808008E47A79BA
:10298000B0E5320A3B593700030BD00A350A0A2D4D
:10299000030A3DBD305802019861767E7301730AC7
:1029A000477E7301720A572D54F5266CDD61067E51
:1029B000A30172BCAD2805122C818003122C98094A
:1029C0007700017E9002AC9709A700027E5018ACF8
:1029D0005A2D24492208807A252709B70007700458
:1029E000152661044CCC6802418E752B00752F00B2
:1029F0007A71307AA131752E00E531BEB12E685B57
:102A00007E31307402AC3B7E112E7418AC1B2D014C
:102A1000493008807E512E740CAC5BE5300A0B2DDA
:102A2000203E24492206882D237E71317418AC7B08
:102A30002D31491308807E7131740CAC7B2D303EF2
:102A400034493306882D319D327A352C7E730172DC
:102A5000BC7D2807122B895802052B052EE52EB4C4
:102A60001097E52BBEB0084012E531BEB00F500BF9
:102A7000122B816806740319B70007492700037EEB
:102A80003527122C8B087DE419B700078076752B4B
:102A900000803BE5320A3BE52B0A2B2D230977000A
:102AA00002BD237812121D32122B91122C8B081C9E
:102AB000E419B700078015121D32122B919D327A4E
:102AC000352C122B8958057D3712003E052B7E735D
:102AD00002B5BE712B38BC49270003E5320A3BBD65
:102AE0002378217E7970BE7008281409770002BE11
:102AF000700F500B122B816806740319B70007740E
:102B0000017A79B00BD0122CA9580221AFE52670BA
:102B100005122B9A80607EB30175F52EBEC0017838
:102B200006E52E1EB0F52EE52EBEB00440376CDD56
:102B3000802C7EA30172BCAD2812122C8109B70033
:102B400007B40118740219B700078010122C9809F5
:102B5000B70007B40106740219B700070BD0122C96
:102B6000A948CF80117E34017512003E8008E47AB6
:102B7000B30175122B9BDA3B227E39B0047A39B04F
:102B8000227EB30A9BBEB006227E370665BE352C78
:102B900022492301F24937000522E47AB301727A0F
:102BA000B3017322CAD8CA797EF00112307E7CDB71
:102BB000122CBC7CEB121662785274017AB30A9B19
:102BC000BED002780A74067AB30A9B6CFF80367E08
:102BD000B3007F702A7EB301787024E50EB4010241
:102BE000800E7EA30CADBEA002400FE47AB30CAD04
:102BF0007E2400017A270AA280767CBA04800774BA
:102C0000047AB30A9BE47AB30CAD8064BE3400014D
:102C1000782EE47AB30A9B4CEE68067E340003807B
:102C20004BBED0027803E480397EB3007F700A7E09
:102C3000B301787004740180291228226CFF80305F
:102C40007E370AA2BE3400037826BED00178051272
:102C500028226CFF1BE168080BE0780C74038002EB
:102C600074027AB30A9B80087E3400017A370AA284
:102C7000BEF0017807122B9A7AB30174DA79DAD8A8
:102C8000227EF008ACFD2E740082229D3212004696
:102C90007A3527BE340023220A3A0A7D9D733E749A
:102CA0003E743E742E7400FA227E7301730A377EDE
:102CB0005301720A252D230A3DBD32227E50047E27
:102CC00040026C666CAA6C77A5BC00037E40016C68
:102CD000336C227E1002AC127E9018AC932D4049CA
:102CE000040880BE04001408040B608008BE04FFC2
:102CF000EC58020BA00B702C24BE200A40D52C35BA
:102D0000BE301040CC7CB71EB00A2B0A16BD12088C
:102D10001EE47AB30A9D7E730A9CBE700550067E3F
:102D2000340A9C8022E47AB30A9C751601802D0A2D
:102D30003ABD320821E47AB30A9C7E730A9DBE70C4
:102D40000550097E340A9D12003E8010E47AB30AD1
:102D50009D7516028006122EFB751600E51622CA16
:102D60003B7D717A25267D637E340C3E7D272E24A3
:102D700000087E1400151203337E340C537D272E79
:102D800024001D7E1400151203337E340C687D2749
:102D90002E2400327E14001512033309B601107080
:102DA000097D36122EF3047A39B0E419B601100900
:102DB00066003D09760043BC7640327D362E3400F5
:102DC00040122B7909760040BE7008401BE419B60A
:102DD000004009A6003E09B60044BCBA500A7D3640
:102DE0002E340044047A39B0E419B600437E352607
:102DF0007E39700A277D32120E727408ACB79D2599
:102E00007C651976010C09B60040ACB77C7B19765D
:102E100000D909760040BC767D26501F2E24010C77
:102E20007E29B0047A29B0093600407D262E240080
:102E3000D97E29702C737A2970800C2E2400D97EBB
:102E400029B02CB67A29B0097600430A372D360905
:102E500073000C0A372D3609A3002C6C66807F099D
:102E60007600D90A170A262D210A452E440C3E7EEB
:102E700049B02CBA7A49B07C463E400AF52EF52678
:102E8000093F00040A042D07193000470A0509B05C
:102E90000C3E0A442D4719B400080A4509740C5326
:102EA0000A442D471974001D0A4509240C680A04B8
:102EB0002D07192000320A442D47193400480A44CE
:102EC0002D4719B400090A142D171971001E0A158F
:102ED00009710C680A142D17197100330B600976FB
:102EE000010CBC762802C15F3E7019770005DA3B01
:102EF000227D302E3400437E39B022E47AB30A9D1D
:102F00007AB30A9C22122EFB74067AB30A9B6D33A5
:102F10007A370AA275150222123CD7280C7EB30319
:102F2000B3700674017AB303B36CAA6C55124D4AA0
:102F3000B40308E419B400077EA0010B50A5BD0F2F
:102F4000EC6C55124D4AB40202800302305DBEA003
:102F500001780C09440002BE400F500302305DBEF0
:102F6000500F50067E34017280047E3401731228A3
:102F700015E419B4000709B40002B40F29BE500FBC
:102F8000502412334A400302305D7E430080BE432A
:102F9000007F7812740219B400077EB30172047ABC
:102FA000B3017202305D7E4302F8BE430664281608
:102FB0007EB303B3B4010F7EB30664047AB3066430
:102FC00074027AB303B3BE43066438077E349C4070
:102FD0007A3508094400021A341B357C4780700991
:102FE000B400011A1B1B158056BE4000484FBE405E
:102FF00015584ABE30004845BE300C58401A333E82
:10300000341230682D3F49F30880BEF400001AC422
:103010007ED4000C080D1230710B08E02DEF1B0858
:10302000E0800B1230710B08302D3F1B08306D33E0
:103030001A033E041230682D0F593008800B3009F6
:103040002400010A020B051A33BD30089C0B40090D
:103050002400020A020B051A34BD3008820B50BE50
:10306000501E5003022F43221AE47EF40018ADFED6
:1030700022ADDC1A032D0D3E042E04068822CA69F7
:10308000CAF87EB3067FF5267EC306807ED10E7E0B
:10309000D406887EC408807E34029C7E2402847E0E
:1030A000A302B57E3302827EB302B77009BED0019F
:1030B0007804E51521DB4CDD782B6C33E5260A4BD3
:1030C0000A5C9D540B547CAB74017AB302B87EB396
:1030D0000CACBEB0025009047AB30CACE51521DB90
:1030E000E47AB30CAC6CFF6C222177A5BA00046DB6
:1030F0000080077E05292E04000C7A05290A430A60
:10310000022D04E5260A4BBD04486A0A4CBD04188A
:1031100064BE04000F585EBED00178127E9002ACEF
:103120009F7E1018AC122D04490001F2801A7E45D2
:10313000293E447E1002AC1F2D047D402D4C0B48CF
:10314000402D0D0B08002D047A05277E9002AC9FC0
:103150002D430B4800BE052750067E05271B48005F
:103160007E9002AC9F2D420B4800BE052728067EAC
:1031700005271B48000B20BCA2280201EB0BF0BE68
:10318000F009380201E76CFF7402ACBF49250284E4
:103190004935029C9D32120046BE3400FA0805757E
:1031A000150280070BF0BEF00928DD7EB302B8B42B
:1031B0000127BEF00A78037515016CFF6D337402A8
:1031C000ACBF5935029C7E347FFF7402ACBF5935C9
:1031D00002840BF0BEF00C78E3E515DAF8DA692228
:1031E0007EA303A8BEA0003834BEA303A750197E57
:1031F000B303ACBEB30CB028147EB30CB0047AB3E6
:103200000CB07AA303A78005E47AB30CB07EB303B5
:10321000A7700A7EB303AB54FE7AB303AB2212321B
:10322000327AB30CA274FF7AB30C9A74017AB30C9D
:10323000A32274037AB30C9BE4226D337A370CA477
:10324000E47AB30C7D22CA7BCA6BCA5BCA4BCA2B19
:10325000CA1BCA0BC0D0C083C082120056123352A0
:103260002093086D337A370CAE80137E370CAE0B8B
:10327000347A370CAEBE3403E8280375E9FFE5CC99
:10328000B402031233521234E468061B347A370A4C
:10329000D67E3519BE3403E8400E6D337A3519E514
:1032A0000BBEB0645002050B7E3703B00B347A3787
:1032B00003B07E37003CBE3703B028031233AC7E28
:1032C0003703B44D33680EBE3400017802D2011BBF
:1032D000347A3703B412334A50140B347A3508E584
:1032E000CCB4020A12334A50050B347A35087EB347
:1032F0000B31B4AA137EA302C57CBA047AB302C50B
:10330000BEA06428031227E9E513BEB112280B05FD
:1033100012E5CCB40207051280037511017EB30BD0
:10332000DE6012BEB0285007047AB30BDE800612AE
:10333000370812323AD082D083D0D0DA0BDA1BDAD7
:103340002BDA4BDA5BDA6BDA7B327E3508BE349CE3
:1033500040227E35190B347A351922E59B0A3B6DE4
:10336000220B1C7E14000C1201987EB403E87D1B16
:103370001201987F017ED436007EC4016E7F161242
:1033800001F47F017E78FFFF7F179F107CB6F58DDB
:10339000E59B0A0B0B047E14000CAD10AD1B7F16D1
:1033A0001201F47F279F21F58BD28E220233AFE5E5
:1033B0009A6005D29CA9D6DF22CA797EF1CC7E37ED
:1033C00002BA4D3378357E5303A7BE5000280575E9
:1033D0000B00818D7EB302BC20E002818D7E530202
:1033E000C2BE510B2802818D750B007E2400017A2C
:1033F0002702BA74017AB30B2F818DBE3400017895
:103400001B7EB303A77002818D6D227A2702BAE476
:103410007AB30B2F75121E7511018071BE34000333
:10342000786B1227C31233ACA9D6EBA9C6ACA9C6D8
:10343000ECC296C289D2B8A9D0B7D2A81234EB6038
:10344000FB2093FD53CAFE53C9FD7587020000009F
:1034500000C2A8C29543CA011237C81227C312334B
:10346000AC1234DC53DBF043C902121681120E8613
:103470006D337A3702BAE47AB30B2F122F05123765
:10348000BF1234E478FB12165BE4120EE16CEEA975
:10349000C6CB801DE412460CA925DD15A921DB1140
:1034A000C2CDA9C7CBC2CC4CEE78067EE00175CC6C
:1034B00002E51160DF1234DCA9D6CB75120075115C
:1034C000007AF1CC7EB303AB54EF7AB303AB7E73D7
:1034D00003A77A7303A8121755DA7922D2CDA9D798
:1034E000CBD2CC227E370AD64D3322300305C2031D
:1034F000740122E422CA3B7CCB124D581234EB609B
:10350000FB1216811234EB60FB1216521246B012F7
:10351000175C6D337D736CDD4D77780A6D11123653
:10352000200A2B1B28100A2D2E240249121ED00A15
:103530002BBD2740257E14000CAD173E147E500293
:10354000AC5D2D212E270C7E0B28101236200A2B65
:103550000B2800BD1028031B28100BD0BED00A7802
:10356000B70B74BE74001078AD7D736CDD0A3D2E10
:1035700034024912053C0A3BBD3740307EF4000C52
:10358000ADF77DEF3EE47402ACBD2DE52EE70C7E79
:103590000BE8201236200A3B0B38309D327D235E2B
:1035A00050F80A1D2D1F3E14592104270BD0BED000
:1035B0000A78BA0B74BE74001078B07E3403B67A01
:1035C00035217523006D777E35217E39707CB76299
:1035D000230A3C2D377E25217D120B147A15217E7E
:1035E00029B012360A0B74BE74026940DA7E3403C5
:1035F000F0E52312360A7E3403F174FF9EB12312E4
:10360000360A1216817401DA3B227CABE517B4014D
:103610000EE518B401092E347C007CBA023627224C
:103620007CBD3EB02424227CAB7D231236E87D1283
:103630005E14000168021B240A147CB3F5F17CB50A
:10364000F5F275F38075F40175F5005E34000168DC
:103650000875F6FF7AA1F680067AA1F675F6FFA93D
:1036600036F5FC43FA8002366975FD0F75FEF0A948
:10367000C5CBC2C9D2AF221236E875F3000A561E76
:10368000541E543E543E54F5F175F20075F9007520
:10369000F91075F950740A1236B875F951742D1273
:1036A00036CD75F911740A1236B875F91075F9002E
:1036B00074011236B80236697CAB80080000000045
:1036C000000000007C7A1BA0A5BF00F0227C6B806C
:1036D0000E74FA1236B81236B81236B81236B87CF2
:1036E000761B60A5BF00EA22C2AFD2C9A9D5CB75AF
:1036F000FD0F75FE0F227E346FF874661236277E3A
:10370000346FF974BB023627CAF86D337A370BE38E
:10371000E47AB30BDD7EB30BE5C47CFB5EF0077887
:1037200005123756800DBEF0044008BEF005680350
:1037300012374CE41237B674AA7AB30B907AB30BF3
:10374000917AB30BB47AB30BB5DAF8227EB30BE8F7
:10375000123A70F591227EB30BE81239ECF5912202
:10376000E47AB30BE512376B02370802376ECA7979
:103770007EF0707E34780012064F7CEB7E34780148
:1037800012064FBEE0FF680C6CBEB4FF077CBE2083
:10379000E0027CFE759100C290C291D2CE7CBF54F3
:1037A000FEF592D2ADD2E8C2C0A9D0F7D2F8A9D521
:1037B000B7D2BDDA79227AB30BDF7AB30BDE227E81
:1037C00034000A7A370AD622A9C6EBA9D6ACA9D604
:1037D000ECD28622124621E412465B1237C8120050
:1037E0004112002A12467974010237EC7003C2AF0D
:1037F00022D2AF22BEB00A50070A2B19720C9A22AD
:103800000A2B9E24000A7C650A26BE240269500DFC
:10381000A5BE7D0302381E0A26197203B6223000A7
:10382000087401121669C20022E4121669D200223D
:10383000CA797C6B14685314686214687A146877C8
:1038400014687414687114686E14686B14686814D2
:10385000686514686214685F14685C1468591468B9
:103860005624C368611BB1686914686C2465685C80
:1038700024EA7869123C224C776804A5BF010474DD
:103880000180027403123B8D213F7A730BE274189E
:10389000AC7B2E370C7E7A370BE0213FA5BF0407A7
:1038A00074017E7004800BA5BF05028002213FE4F5
:1038B0006C771237F4213F0A262E2403B69E24008B
:1038C000037A297080797A7303C380737A730CA3A7
:1038D000806D7A730421806712381E8062123C3436
:1038E0007CABBE6050400EBE60633809123942198D
:1038F000720376804ABE6078400EBE608B38091233
:103900003942197203638037BE60A0400EBE60B3B7
:103910003809123942197203508024BE60BF400E2C
:10392000BE60D238091239421972033D8011BE605F
:10393000D3400CBE60E638071239421972033EDAF2
:1039400079227414A40A262D2522CA79309064C2E3
:10395000907EB30BDF047AB30BDF7EF30BDFBEF098
:10396000017808E5917AB30BE8802A7EB30BE5C4B1
:103970007CEB5EE007780B123B797E7191123BD6AF
:103980008013BEE004400EBEE0056809123B797E5C
:103990007191123830123B82A5BD000A123B686853
:1039A00012123756800DBE50044008BE5005680301
:1039B00012374C309133C2917EB30BDD047AB30BD6
:1039C000DD123B82A5BD000F123B68681C123B70E4
:1039D0001239ECF5918012BE5004400DBE500568BE
:1039E00008123B70123A70F591DA7922BEB080402D
:1039F0000CBEB0BF38070A3B09B30A8A227CAB0B66
:103A0000A268091BA2780A7EB30BE5227EB30B31B4
:103A100022B403113002067E340B9080047E340BF6
:103A2000B47A370BE6BEB0034010BEB03E380B0A86
:103A30003B2E370BE609B30002221BB1681904784C
:103A40002C3002067E340B9080047E340BB47A371F
:103A50000BE609B30004223002067E340B9080048A
:103A60007E340BB47A370BE609B300032274FF22CD
:103A70007C7B1468421468441468441468411468D8
:103A80003E14683B14683814683514683214682F83
:103A900014682C14682914682614682314682024D8
:103AA000C368281BB168332464682514682724EB95
:103AB000782D7EB30BE5227EB30BE22274FF220A3F
:103AC000372E3403B69E34000380337EB303C32203
:103AD0007EB30CA3227EB30C9A227EB30421221261
:103AE0003C347C6BBE70104019BE7038381474289A
:103AF000ACB60A372E370BE09E3400102D357E39D8
:103B0000B022BE7050400DBE70633808123B5F0992
:103B1000B3037622BE7078400DBE708B3808123B1E
:103B20005F09B3036322BE70A0400DBE70B33808B6
:103B3000123B5F09B3035022BE70BF400DBE70D26E
:103B40003808123B5F09B3033D22BE70D3400DBE5F
:103B500070E63808123B5F09B3033E2274FF2274FB
:103B600014ACB60A372D3522E41239ECBEB010225F
:103B70007EB30BDD2EB30BE8227CBF2EB30BE82403
:103B8000FE227EB30BE5C47C5B5E5007227C7B7E0D
:103B9000B30B31B4030574010237F47427023BA060
:103BA000BEB07F38307C6B2E60FD68291B606825B5
:103BB0002E60E168202E60FD681B1B6168172E6077
:103BC000F9681280000A2B19720B0A7EB30B8A4423
:103BD000017AB30B8A22CA79BEB080401DBEB0BF45
:103BE0003818BEB0266838BEB0286833BEB0236827
:103BF0002EBEB02F6829248080220BB2681C1BB215
:103C0000781D123C22BE70044009BE700568047421
:103C10000380027401123B8D80057427123BA0DAE9
:103C200079227E740BE57A79705E70707CB7C4542B
:103C30000F7C7B227EB30BE5C45407B40402E4225C
:103C4000B40603740122B40703740222E422CA7B7F
:103C5000CA6BCA5BCA4BCA2BCA1BCA0BC0D0C08373
:103C6000C082E5CCB4020375CC0012394A30900210
:103C7000C290309102C29174017AB30BDED082D02F
:103C800083D0D0DA0BDA1BDA2BDA4BDA5BDA6BDAB9
:103C90007B327EB3008130E0237E3703A9BE34003F
:103CA0006450080B347A3703A9801112165B6D3308
:103CB0007A3703A97E3405DC7A3703B47EB30081FA
:103CC00020E0136D337A3703A930010AC201123C98
:103CD000D7280312165B227E73007FBE700022CAB3
:103CE0003B7D627D73752A00752C00752F00753041
:103CF000000B78307A370C3E09B7005020E00820DE
:103D0000E20520E102E14E2002067E340B908004A1
:103D10007E340BB47A352D7526007EA0FF123F88C5
:103D20007A39A00526E526B424F074AA7E352D7ACA
:103D300039B07E352D19B300010977004A7E252D53
:103D400019720004752B007526007E71267407AC6D
:103D50007B7D232D2709A200087CBA54F0BEB00059
:103D60002826B4B0028002C1E12E2400087CBA5497
:103D70000F7A29B07D232D27095200080A25123F0A
:103D800072B401028002C1E12D3709A300080A2A9A
:103D9000123F72BEB0037802C1E17AA1317EA12B3D
:103DA0007406A4F52709B30009F52F123F6809B37B
:103DB000000AC454F0F530E531BEB005506609B7CD
:103DC000005020E32A7E08002FE5310A3B2E340BF9
:103DD0008B74017E500F123FA37E080030E5310A3C
:103DE0003B2E340BD874107E5020123FA38014E574
:103DF000310A3B09B30B8BF52FE5310A3B09B30BB5
:103E0000D8F530E5310A3B7D23123F72B40115E449
:103E100019B30B8B6CAAE5310A3B19A30BD8752F8C
:103E20000075300009B60006B4FF14123F6809B3EC
:103E30000008BEB0FF6805752F018003752F0012C2
:103E40003F6849330004123F5519A300057E5528E9
:103E5000123F5E19A30006123F6849330006123F65
:103E60005519A300077E5528123F5E19A300087E4E
:103E7000A12F123F6019A300097EA130123F6019E3
:103E8000A3000A123F68096300087CB6C454F0120C
:103E90003F992E240007123F907E51267407AC5B99
:103EA0002D2709720008BE70FF68250A172E170C0F
:103EB0003E09610023BE60016802052A052C7CB61C
:103EC000030354C0123F992E240005123F90800F27
:103ED000123F602E3400057E39B024C07A39B00517
:103EE0002B0526E526B405028002A14AE52A7E3587
:103EF0002D19B3000374247E352D19B30002E47E1E
:103F0000352D19B30023752600123F887E39607E57
:103F1000252D2E2400237E29706C767A29700526A3
:103F2000E526B423E4B202740112166909B7005001
:103F300030E2077E370C3E1245B2123F7E54FE122D
:103F40003F7B54FB123F7B54FD7A39B08004E4126E
:103F50001669DA3B227A35280A565E54000F7CAB8C
:103F6000E5270A3B2E352D227E71267407AC7B2D6A
:103F700037222E270C3E09B20023227A39B07D3732
:103F80002E3400507E39B022E5260A3B2E352D22F4
:103F90007E29702C767A2970227C6BE5270A2B2EDD
:103FA000252D22CA3B7CC57CDB7D737A0D327E7960
:103FB00050A5BD000B7E0D327E0B407A79408036D5
:103FC0007E0D327E0B400A340A259D321200460ACD
:103FD0002CBD3208187E1D327E1BB07E79A0BCBA83
:103FE0007CBA28042CBD80029CBD7A79B07E7930E1
:103FF0007E1D327A1B30DA3B22CA3B7EB306607CE0
:10400000EB70276CFF6D117402ACBF59150AFB7E73
:10401000A0FF7E3007AC3F19A10ADC74020A1F1909
:10402000B10B050BF0BEF00578DB6CFF214C74077B
:10403000ACBF09B50623F527BEB0FF7802214A12AE
:104040004171BEB0017802214A7526007E31267486
:1040500007AC3B09710ADC7A7128BE71276802211E
:104060003F49210ADA7407ACBF4935062112417A6B
:104070007EA1267407A449250AD87407ACBF493528
:10408000061F9D321200467D032D06E5280A1B09F6
:10409000A10B05BEA00028177E71287402AC7B59C5
:1040A000030AFB2E140B057CBA147A19B0214A7E40
:1040B000A1287402A449150AFBBE1400642808BE96
:1040C000040064280280727D412E440032BD4050BD
:1040D00008BE140032280280607E1702F3BD105023
:1040E00052124171700474038002740119B10642C6
:1040F0007EA003E5270A1B19A106477E7007AC7F47
:104100002E34061F7E140C3E7407120228BEE000F7
:1041100028211BE07E7007AC7E2E34061F7E300700
:10412000AC3F1241687E340C3E7E3007AC3E1241FB
:10413000681BF07EA1287402A459050AFB800B05B8
:1041400026E526BEB0055002014C0BF07E730660DA
:10415000BC7F2802012E7AE306607E24061F7E348F
:104160000AD8120B50DA3B222E14061F74070202E3
:1041700028E5270A1B09B10642229D321200467D1E
:1041800063226CAA6C770A272E240249121ED0B42F
:104190000F301241F8BE0702F6080E9E0702F61213
:1041A00042027E4702F61241EE7E3002AC374921D0
:1041B00009E8BE24005048020BA0BE24FFB018023C
:1041C0000BA10B70A5BF0ABE6C770A272E240249EB
:1041D000121ED0B40F10BEA002400B1241F81242C2
:1041E000026D441241EE0B70BE700A40DD227E501B
:1041F00002AC57594209E8227E3002AC3749010926
:10420000E8222E1407F00B18202D201B1820226CFA
:10421000AA0A3A2E34024912053C0A3B0B34801498
:104220006D447E3002AC3A7E5018AC572D21594275
:1042300008800B70BE701040E70BA0BEA00A40D1F2
:104240002274147AB30B0A743C7AB30B0BE47AB37E
:104250000B0D74067AB30B0E74A07AB30B0F7401B6
:104260007AB30B10740A7AB30B1174067AB30B127B
:1042700074147AB30B131243B2740A7AB30B2D740D
:10428000017AB30B2EE47AB30B2F74027AB30B309E
:104290001227E9743B7AB30B32E47AB30B337AB367
:1042A0000B3474017AB30B3974C87AB30B38E47ADF
:1042B000B30B3C74507AB30B3D74327AB30B3E743B
:1042C0004B7AB30B3F74027AB30B406D337A3702EB
:1042D000BA74017AB302BCE47AB302C374107AB33D
:1042E00002BE74067AB302BF74147AB302C07AB302
:1042F00002C1740A7AB302C274017AB302C47E3472
:1043000000507A37066574147AB306677E24003C41
:104310007A270668E47AB3068774027AB3067A7A53
:10432000B3067BE47AB3067F740F7AB30680E47A2F
:10433000B3067C7AB3067474037AB30675E47AB371
:10434000067674047AB306777E2400647A270678AA
:104350007A37067074327AB3067274057AB302EF54
:104360007E340A007A3702F074A07AB302F27E3407
:1043700000C87A3702F37E34012C7A3702F67402D1
:104380007AB302F8E47AB302F57AB30B157E7304BC
:10439000217A730B147E7304247A730B177E7304D3
:1043A000257A730B187AB30B197E7304267A730B74
:1043B000162274FF7AB30B2A221227C312442D123D
:1043C0004460124437A9D3F7C2FB1237601243B2DC
:1043D0001205451227E97EB30B3124FD68141468D9
:1043E0001624AF683024AB681324A978E912134966
:1043F00080E412168D80DF12278880DA12077C7E17
:10440000B303B2BEB0AA68CEE47AB302C574AA7A86
:10441000B303B280C112077C7EB303B2B4AAB774EF
:10442000557AB303B21236F675E9FF80A90244301B
:10443000A9D099A9C6DF2202443A43DB10D2D9C2DF
:10444000DDC2DCC2DBC2DAD2D875D706C2EA0244CA
:1044500051C20353DBFDD2EBC2C3A9D3F7D2FB2277
:104460001237D4024466024469C28E758910759B66
:104470000012335BD2AB227E240B0A7EB30B8A2060
:10448000E002A1A154FE7AB30B8A7E2970BE7306A6
:1044900067680E7A7306670A373E343E347A370609
:1044A00065097200010A37BE37066868047A370664
:1044B0006809720005BE7302F2680B7A7302F21289
:1044C0001FBA7A3702F00972002E0A37BE3702F39C
:1044D00068047A3702F3097200250A37BE3702BA38
:1044E00068047A3702BA09720006BE7302BC680417
:1044F0007A7302BC09720008BE7302BF681F7A7328
:1045000002BFBE700F4005E419B20008097200082E
:104510000A372E34035A12053C7AB302BE097200E0
:1045200009BE7302C168087A7302C17A7302C009B6
:10453000720007BE7302C268047A7302C209720075
:1045400024BE7302C468047A7302C409720032BEC6
:104550007302F568047A7302F5097200330A37BEF4
:1045600037067068047A37067009720034BE730625
:104570007268047A7306727E3702F60E340E347C4B
:104580006709720035BC76680A0A373E343E347AD1
:104590003702F609720036BE7302F868047A7302B5
:1045A000F822CAB8A9C093E47AB30BDD1237B6DAA1
:1045B000B8326CAA74030A2A2D2319B200280A2AD9
:1045C0002D2319B200237E24FFFF7E3002AC3A7DFA
:1045D000012D035920002D2D13592100370BA0BEAA
:1045E000A00540D0E419B3004119B3004222CA79B2
:1045F0006CEE7EF1CC800A4CEE78037EE0014387BE
:10460000011234EB60F17AF1CCDA7922700343873E
:1046100001B40103438702B4020343870222C2ECC0
:1046200032A9C6DB22CA7BCA6BCA5BCA4BCA2BCA79
:104630001BCA0BC0D0C083C0821233AF7EB30BE560
:1046400054FD7AB30BE5D082D083D0D0DA0BDA1BDD
:10465000DA2BDA4BDA5BDA6BDA7B3275CBC075C8F2
:10466000B814680814680A75CC00800875CC0280FC
:104670000375CC010000000022759AE8A9D199D2F7
:104680009CA9D6DF22E517B40108E518B40103029E
:10469000367722D2C9C2AF75F1001246A775F5036D
:1046A000A937F5FC020666F5F275F38075F4002271
:1046B000CAF87D03C2046D11098000017E099009CA
:1046C000A0002CA933DD05A9C3DD8003A9D3DDE556
:1046D0001E19B2041CE51E7017751E0174201246C7
:1046E00093BEB0FF6813BEB01F680E751EEE800942
:1046F000E51EB4EE0474EEE1E309F0001A09B0001F
:1047000019BCBF280ED2040A182D10093100180A4E
:104710001380020A1B75C30009B0002FC43354E094
:104720004CB8F5C37A91C43E142E14100009B000A1
:104730002B7064493204110A067CB1F5BA7CB7F5D6
:10474000B97D422E4401F87D340A067CB11247EC53
:1047500030040375C21043C205800343C201000048
:104760000000E5C230E7F475C2000A027A11BA7C93
:10477000B3F5B97D340A487CB9F5BC7CB7F5BB7A92
:1047800011C17CB3F5BD800043C20100000000E50B
:10479000C230E7F475C2004CAA68271247F30A56E4
:1047A000F5BC7CB7F5BB1247E630040375C2104375
:1047B000C203800343C20100000000E5C230E7F4F9
:1047C000801D1247F31247E630040375C21043C23E
:1047D00005800343C20100000000E5C230E7F47524
:1047E000C200E4DAF8222E3401F80A56F5C17CB78B
:1047F000F5BD220A52F5BA7CB3F5B97D3222D20357
:10480000A9C1DBC2C353DBBF3260057EA00A8002B0
:104810006CAAE5DC54E00A2B0A3A2D327CB7F5DCB1
:1048200022A9D5CB7E3402C6CA797D73E4124872C0
:1048300009B7001812487C74011248091248957093
:1048400003E4802B74147E707F1227D27003E480FF
:104850001E7D377D272E24000C121ED97D37122095
:1048600086E4124809124888600474018001E4DA81
:104870007922700453DBBF2243DB402275CA000A51
:104880005B3E540B54F5CA22E46C771227D26003C6
:10489000740122E422E47E70031227D260037401C3
:1048A00022E4226C776D22800E0B70A5BFFF020BF5
:1048B00024BE2403E868033003EFC20353DBFE5336
:1048C000DBFDC2EB227D2374307AB30B2B74F87AB4
:1048D000B30B2C2E2403F06D116D557D013E042D7C
:1048E000031B085074FF7D011E041E041E042D02CC
:1048F0007A09B00B14BE1400FC40DE22CA3B7D02D4
:1049000009B004137CAB095100150941001670026F
:104910004128B404063E503E503E507D407D102E4E
:104920001401F82E0403F06CFF411F7ED00CACDFA5
:104930007DF67526004112BEA00378080AC57DDF0A
:104940003ED48018BEA00278080AC57DDF3ED4415F
:1049500004BEA005780F124A2B0BE8C02DD40BD84B
:10496000E02DEC410BBEA00678707DEF5EE4000701
:104970002EE4001E124A347DDF1ED41ED41ED42D18
:10498000D07ED9B05CBE683B7DCF3EC47DDC2DD1EE
:104990000BD8B00AD4BDBD08100A957DAC2DA40B70
:1049A000A8D02DD91BA8D080650AD46ED4FFFF0BE8
:1049B000D4BDBD58590AB52DC40BC8D09DDB1BC84A
:1049C000D0804B124A347DEF1EE41EE41EE42DE03D
:1049D0007EE9B04CBE7AE9B08034124A2B0BE8C0B5
:1049E0000AE4BDCE08100AA57DBD2DB40BB8E02D9C
:1049F000EA1BB8E080180AE46EE4FFFF0BE4BDCECA
:104A0000580C0AC52DD40BD8E09DEC1BD8E00BF454
:104A1000052609B30001BEB126280221370BF07E1E
:104A200039B0BCBF2802212BDA3B227DDF3ED47D8A
:104A3000ED2DE1227D6E7AD1827AC183E4937CEB05
:104A400022CA3B7D427DF34921000B6D332EF401D8
:104A5000F87D5FF5B90A5AF5BA75BB0F75BC057ECE
:104A6000F40C3E7D5FF5BD0A5AF5C175C30009A47B
:104A7000002F7CBAC43354E07CAB09B400014CBABB
:104A8000F5C37E49B0F5C475C54075C501494100FF
:104A9000037CB9F5C61A58F5C66E44FFFF0B447D7A
:104AA000545E5400FFF5C61A585E5400FFF5C67CEC
:104AB000B5F5C60A54F5C675C209800743C20100A0
:104AC000000000E5C230E7F475C20075C50C7E51E8
:104AD000C67EA1C66C4480297EF002ACF449470C26
:104AE0003E7D640A6C7CBD3EB07DF72DF07AF9B056
:104AF0003E907EF002ACF47DF72DF0199F00010B83
:104B000040BC5438D36C4480277E9002AC9449F466
:104B10000C5C7D7F0A7E7CBF3EB07DE42DE019BE3B
:104B2000013B7D7F7CBF3EB02D4019B4013C0B4062
:104B3000BCA438D51950004119A0013A122EF154E5
:104B4000FE7A39B075C50AE5C60A3BE5C60A2B2DC3
:104B5000320951000D0A15BD135008122EF14401FF
:104B60007A39B0DA3B22CA3B7D617D737E34D8F05E
:104B70007A35287E3427107A352A6D337A352C0918
:104B8000B700D9F534097700432D3709B3000CF588
:104B9000357D322E3401F87A370C3E7D372E3400C5
:104BA000497A370C40493204117A370C427530008B
:104BB0008158E5300A2B3E247E34000CAD327A3524
:104BC000327531008149E5310A3B2E35323E342EB3
:104BD000370C3E492300180B38309D327A352E7E33
:104BE0003528BE352E58067E352E7A35287E352A54
:104BF000BE352E08067E352E7A352A7E352E1200D9
:104C000046BE352C28097E352E1200467A352CE515
:104C10003570347E1134740CAC1BE5310A1B2D0148
:104C20003E042E070C420B0830E5310A2B2E2532AC
:104C3000124CAF2D237E7130740CAC7B2D313E3481
:104C40002E370C401B3820053109760001BE71312A
:104C5000280261C6053405300977010CBE71302881
:104C60000261B20B7830BE34000178087E35289E90
:104C7000352A80037E352C59370047E5357024747A
:104C80000119B7010EE419B7010F097700D90A37E6
:104C90000957010C0A252D237E6970BD23400D7430
:104CA000018005E419B7010E19B7010FDA3B223E66
:104CB000242E270C3E0B2820227407ACB119050CBA
:104CC000427407ACBE493503827407ACB159350C48
:104CD0003E7407ACBE493503847407ACB159350C3A
:104CE000407407ACBF090500617407ACB119050C2D
:104CF000437407ACBF090500627407ACB119050C19
:104D0000440B1022E47AB30AD074017AB30AD17E3C
:104D10007304217A730AD22274197AB30421E47AD3
:104D2000B3042474027AB304257AB30426227407E8
:104D3000ACBF097500607407ACBE09050386BC07EB
:104D4000227E3404277A370A99227E9008AC952E69
:104D500044008209B40007227E3404277E2401F82F
:104D6000E402034A59450C347E34010059350C07DE
:104D7000227E29709E7304247A2970227AB30AD085
:104D8000E47AB30AD1220B28302D311B2830227E41
:104D9000730B187A730425227E3403E87A370422D1
:104DA000227AB30CAB7AB30CAA224DAAB255A758FB
:024DB000023BC4
:00000001FF
